0HN2022102514061000000520                                                                                                                                                                                                                                                                                  *
143383000042703680004507546800030362170010000280368            000006439310ARP                     120322094080000100NNVVSA862A3112497999TENIS CLUB ARG CUOT                      C900                                                                                                                           *
143383000114085970004507546200030362170010000280597            000003710000ARP                     094080000040NNVVSA862A3112497999TENIS CLUB ARG CUOT                      C900                                                                                                                           *
143383000114085970004507547700030362170010000280597            000000284100ARP                     094080000190NNVVSA862A3112497999TENIS CLUB ARG CUOT                      C900                                                                                                                           *
143383000122891110004507547200030362170010000280111            000006459000ARP                     094080000140NNVVSA862A3112497999TENIS CLUB ARG CUOT                      C900                                                                                                                           *
143383000122891110004507547400030362170010000280111            000000751200ARP                     094080000160NNVVSA862A3112497999TENIS CLUB ARG CUOT                      C900                                                                                                                           *
145464000302018620004507546500030362170010000280862            000003890400ARP                     094080000070NNVVSA862A3112497999TENIS CLUB ARG CUOT                      C900                                                                                                                           *
145464080017029330004507546300030362170010000280933            000002438200ARP                     094080000050NNVVSA862A3112497999TENIS CLUB ARG CUOT                      C900                                                                                                                           *
145464080048150540004507546600030362170010000280054            000003645600ARP                     094080000080NNVVSA862A3112497999TENIS CLUB ARG CUOT                      C900                                                                                                                           *
145935400008447460004507546900030362170010000280746            000000127500ARP                     094080000110NNVVSA862A3112497999TENIS CLUB ARG CUOT                      C900                                                                                                                           *
145935400008447460004507547000030362170010000280746            000000185300ARP                     094080000120NNVVSA862A3112497999TENIS CLUB ARG CUOT                      C900                                                                                                                           *
145935400018123790004507547300030362170010000280379            000004278460ARP                     094080000150NNVVSA862A3112497999TENIS CLUB ARG CUOT                      C900                                                                                                                           *
145935400050337740004507546000030362170010000280774            000003747000ARP                     094080000020NNVVSA862A3112497999TENIS CLUB ARG CUOT                      C900                                                                                                                           *
145935400058139280004507547100030362170010000280928            000000741200ARP                     094080000130NNVVSA862A3112497999TENIS CLUB ARG CUOT                      C900                                                                                                                           *
145935400084553390004507547500030362170010000280339            000000103700ARP                     094080000170NNVVSA862A3112497999TENIS CLUB ARG CUOT                      C900                                                                                                                           *
145935400084553390004507547600030362170010000280339            000001136400ARP                     094080000180NNVVSA862A3112497999TENIS CLUB ARG CUOT                      C900                                                                                                                           *
145935480003671390004507546700030362170010000280139            000001877600ARP                     094080000090NNVVSA862A3112497999TENIS CLUB ARG CUOT                      C900                                                                                                                           *
145935480007492110004507546400030362170010000280211            000007830000ARP                     094080000060NNVVSA862A3112497999TENIS CLUB ARG CUOT                      C900                                                                                                                           *
145935480012465060004507546100030362170010000280506            000007702000ARP                     094080000030NNVVSA862A3112497999TENIS CLUB ARG CUOT                      C900                                                                                                                           *
9HN202210251406100000052000000018000000000055346970                                                                                                                                                                                                                                                        *